{
  "_format": "hh-sol-artifact-1",
  "contractName": "JobPortal",
  "sourceName": "contracts/JobPortalContract.sol",
  "abi": [
    {
      "inputs": [
        {
          "internalType": "address",
          "name": "_data",
          "type": "address"
        }
      ],
      "stateMutability": "nonpayable",
      "type": "constructor"
    },
    {
      "inputs": [],
      "name": "getAllJobs",
      "outputs": [
        {
          "components": [
            {
              "internalType": "string",
              "name": "companyName",
              "type": "string"
            },
            {
              "internalType": "string",
              "name": "companyWeb",
              "type": "string"
            },
            {
              "internalType": "string",
              "name": "jobTitle",
              "type": "string"
            },
            {
              "internalType": "string",
              "name": "jobCategory",
              "type": "string"
            },
            {
              "internalType": "string",
              "name": "jobType",
              "type": "string"
            },
            {
              "internalType": "string",
              "name": "jobLocation",
              "type": "string"
            },
            {
              "internalType": "uint256",
              "name": "jobSalary",
              "type": "uint256"
            },
            {
              "internalType": "string",
              "name": "jobExperience",
              "type": "string"
            },
            {
              "internalType": "string",
              "name": "jobQualification",
              "type": "string"
            },
            {
              "internalType": "string",
              "name": "applicaionLink",
              "type": "string"
            },
            {
              "internalType": "address payable",
              "name": "creator",
              "type": "address"
            },
            {
              "internalType": "uint256",
              "name": "deposit",
              "type": "uint256"
            }
          ],
          "internalType": "struct JobPortal.jobData[]",
          "name": "",
          "type": "tuple[]"
        }
      ],
      "stateMutability": "view",
      "type": "function"
    },
    {
      "inputs": [],
      "name": "getBalance",
      "outputs": [
        {
          "internalType": "uint256",
          "name": "",
          "type": "uint256"
        }
      ],
      "stateMutability": "view",
      "type": "function"
    },
    {
      "inputs": [
        {
          "internalType": "uint256",
          "name": "_deposit",
          "type": "uint256"
        }
      ],
      "name": "getRefund",
      "outputs": [],
      "stateMutability": "nonpayable",
      "type": "function"
    },
    {
      "inputs": [
        {
          "internalType": "uint256",
          "name": "_jobSalary",
          "type": "uint256"
        },
        {
          "internalType": "string",
          "name": "_companyName",
          "type": "string"
        },
        {
          "internalType": "string",
          "name": "_companyWeb",
          "type": "string"
        },
        {
          "internalType": "string",
          "name": "_jobTitle",
          "type": "string"
        },
        {
          "internalType": "string",
          "name": "_jobCategory",
          "type": "string"
        },
        {
          "internalType": "string",
          "name": "_jobType",
          "type": "string"
        },
        {
          "internalType": "string",
          "name": "_jobLocation",
          "type": "string"
        },
        {
          "internalType": "string",
          "name": "_jobExperience",
          "type": "string"
        },
        {
          "internalType": "string",
          "name": "_jobQualification",
          "type": "string"
        },
        {
          "internalType": "string",
          "name": "_applicaionLink",
          "type": "string"
        }
      ],
      "name": "setter",
      "outputs": [],
      "stateMutability": "payable",
      "type": "function"
    }
  ],
  "bytecode": "0x60806040523480156200001157600080fd5b5060405162001ceb38038062001ceb8339818101604052810190620000379190620000e9565b80600160006101000a81548173ffffffffffffffffffffffffffffffffffffffff021916908373ffffffffffffffffffffffffffffffffffffffff160217905550506200011b565b600080fd5b600073ffffffffffffffffffffffffffffffffffffffff82169050919050565b6000620000b18262000084565b9050919050565b620000c381620000a4565b8114620000cf57600080fd5b50565b600081519050620000e381620000b8565b92915050565b6000602082840312156200010257620001016200007f565b5b60006200011284828501620000d2565b91505092915050565b611bc0806200012b6000396000f3fe60806040526004361061003f5760003560e01c806312065fe014610044578063965a79fb1461006f578063d2f0be991461009a578063dde62218146100c3575b600080fd5b34801561005057600080fd5b506100596100df565b6040516100669190610e92565b60405180910390f35b34801561007b57600080fd5b506100846100e7565b604051610091919061118b565b60405180910390f35b3480156100a657600080fd5b506100c160048036038101906100bc91906111ed565b6106d3565b005b6100dd60048036038101906100d8919061134f565b610bc5565b005b600047905090565b60606000805480602002602001604051908101604052809291908181526020016000905b828210156106ca57838290600052602060002090600c02016040518061018001604052908160008201805461013f90611559565b80601f016020809104026020016040519081016040528092919081815260200182805461016b90611559565b80156101b85780601f1061018d576101008083540402835291602001916101b8565b820191906000526020600020905b81548152906001019060200180831161019b57829003601f168201915b505050505081526020016001820180546101d190611559565b80601f01602080910402602001604051908101604052809291908181526020018280546101fd90611559565b801561024a5780601f1061021f5761010080835404028352916020019161024a565b820191906000526020600020905b81548152906001019060200180831161022d57829003601f168201915b5050505050815260200160028201805461026390611559565b80601f016020809104026020016040519081016040528092919081815260200182805461028f90611559565b80156102dc5780601f106102b1576101008083540402835291602001916102dc565b820191906000526020600020905b8154815290600101906020018083116102bf57829003601f168201915b505050505081526020016003820180546102f590611559565b80601f016020809104026020016040519081016040528092919081815260200182805461032190611559565b801561036e5780601f106103435761010080835404028352916020019161036e565b820191906000526020600020905b81548152906001019060200180831161035157829003601f168201915b5050505050815260200160048201805461038790611559565b80601f01602080910402602001604051908101604052809291908181526020018280546103b390611559565b80156104005780601f106103d557610100808354040283529160200191610400565b820191906000526020600020905b8154815290600101906020018083116103e357829003601f168201915b5050505050815260200160058201805461041990611559565b80601f016020809104026020016040519081016040528092919081815260200182805461044590611559565b80156104925780601f1061046757610100808354040283529160200191610492565b820191906000526020600020905b81548152906001019060200180831161047557829003601f168201915b50505050508152602001600682015481526020016007820180546104b590611559565b80601f01602080910402602001604051908101604052809291908181526020018280546104e190611559565b801561052e5780601f106105035761010080835404028352916020019161052e565b820191906000526020600020905b81548152906001019060200180831161051157829003601f168201915b5050505050815260200160088201805461054790611559565b80601f016020809104026020016040519081016040528092919081815260200182805461057390611559565b80156105c05780601f10610595576101008083540402835291602001916105c0565b820191906000526020600020905b8154815290600101906020018083116105a357829003601f168201915b505050505081526020016009820180546105d990611559565b80601f016020809104026020016040519081016040528092919081815260200182805461060590611559565b80156106525780601f1061062757610100808354040283529160200191610652565b820191906000526020600020905b81548152906001019060200180831161063557829003601f168201915b50505050508152602001600a820160009054906101000a900473ffffffffffffffffffffffffffffffffffffffff1673ffffffffffffffffffffffffffffffffffffffff1673ffffffffffffffffffffffffffffffffffffffff168152602001600b820154815250508152602001906001019061010b565b50505050905090565b60005b600080549050811015610bc1573373ffffffffffffffffffffffffffffffffffffffff166000828154811061070e5761070d61158a565b5b90600052602060002090600c0201600a0160009054906101000a900473ffffffffffffffffffffffffffffffffffffffff1673ffffffffffffffffffffffffffffffffffffffff16148015610787575081600082815481106107735761077261158a565b5b90600052602060002090600c0201600b0154145b15610bae57600160009054906101000a900473ffffffffffffffffffffffffffffffffffffffff1673ffffffffffffffffffffffffffffffffffffffff166108fc60646005600085815481106107e0576107df61158a565b5b90600052602060002090600c0201600b01546107fc91906115e8565b6108069190611659565b9081150290604051600060405180830381858888f19350505050158015610831573d6000803e3d6000fd5b50600081815481106108465761084561158a565b5b90600052602060002090600c0201600a0160009054906101000a900473ffffffffffffffffffffffffffffffffffffffff1673ffffffffffffffffffffffffffffffffffffffff166108fc60646005600085815481106108a9576108a861158a565b5b90600052602060002090600c0201600b01546108c591906115e8565b6108cf9190611659565b600084815481106108e3576108e261158a565b5b90600052602060002090600c0201600b01546108ff919061168a565b9081150290604051600060405180830381858888f1935050505015801561092a573d6000803e3d6000fd5b506000600160008054905061093f919061168a565b815481106109505761094f61158a565b5b90600052602060002090600c0201600082815481106109725761097161158a565b5b90600052602060002090600c0201600082018160000190816109949190611880565b50600182018160010190816109a99190611880565b50600282018160020190816109be9190611880565b50600382018160030190816109d39190611880565b50600482018160040190816109e89190611880565b50600582018160050190816109fd9190611880565b506006820154816006015560078201816007019081610a1c9190611880565b5060088201816008019081610a319190611880565b5060098201816009019081610a469190611880565b50600a820160009054906101000a900473ffffffffffffffffffffffffffffffffffffffff1681600a0160006101000a81548173ffffffffffffffffffffffffffffffffffffffff021916908373ffffffffffffffffffffffffffffffffffffffff160217905550600b82015481600b01559050506000805480610acd57610acc611968565b5b60019003818190600052602060002090600c020160008082016000610af29190610e1c565b600182016000610b029190610e1c565b600282016000610b129190610e1c565b600382016000610b229190610e1c565b600482016000610b329190610e1c565b600582016000610b429190610e1c565b6006820160009055600782016000610b5a9190610e1c565b600882016000610b6a9190610e1c565b600982016000610b7a9190610e1c565b600a820160006101000a81549073ffffffffffffffffffffffffffffffffffffffff0219169055600b820160009055505090555b8080610bb990611997565b9150506106d6565b5050565b60005b6000805490508160ff161015610c55573460008260ff1681548110610bf057610bef61158a565b5b90600052602060002090600c0201600b015403610c42576040517f08c379a0000000000000000000000000000000000000000000000000000000008152600401610c3990611a62565b60405180910390fd5b8080610c4d90611a8f565b915050610bc8565b5060006040518061018001604052808b81526020018a81526020018981526020018881526020018781526020018681526020018c81526020018581526020018481526020018381526020013373ffffffffffffffffffffffffffffffffffffffff1681526020013481525090806001815401808255809150506001900390600052602060002090600c02016000909190919091506000820151816000019081610cfe9190611ab8565b506020820151816001019081610d149190611ab8565b506040820151816002019081610d2a9190611ab8565b506060820151816003019081610d409190611ab8565b506080820151816004019081610d569190611ab8565b5060a0820151816005019081610d6c9190611ab8565b5060c0820151816006015560e0820151816007019081610d8c9190611ab8565b50610100820151816008019081610da39190611ab8565b50610120820151816009019081610dba9190611ab8565b5061014082015181600a0160006101000a81548173ffffffffffffffffffffffffffffffffffffffff021916908373ffffffffffffffffffffffffffffffffffffffff16021790555061016082015181600b0155505050505050505050505050565b508054610e2890611559565b6000825580601f10610e3a5750610e59565b601f016020900490600052602060002090810190610e589190610e5c565b5b50565b5b80821115610e75576000816000905550600101610e5d565b5090565b6000819050919050565b610e8c81610e79565b82525050565b6000602082019050610ea76000830184610e83565b92915050565b600081519050919050565b600082825260208201905092915050565b6000819050602082019050919050565b600081519050919050565b600082825260208201905092915050565b60005b83811015610f13578082015181840152602081019050610ef8565b60008484015250505050565b6000601f19601f8301169050919050565b6000610f3b82610ed9565b610f458185610ee4565b9350610f55818560208601610ef5565b610f5e81610f1f565b840191505092915050565b610f7281610e79565b82525050565b600073ffffffffffffffffffffffffffffffffffffffff82169050919050565b6000610fa382610f78565b9050919050565b610fb381610f98565b82525050565b6000610180830160008301518482036000860152610fd78282610f30565b91505060208301518482036020860152610ff18282610f30565b9150506040830151848203604086015261100b8282610f30565b915050606083015184820360608601526110258282610f30565b9150506080830151848203608086015261103f8282610f30565b91505060a083015184820360a08601526110598282610f30565b91505060c083015161106e60c0860182610f69565b5060e083015184820360e08601526110868282610f30565b9150506101008301518482036101008601526110a28282610f30565b9150506101208301518482036101208601526110be8282610f30565b9150506101408301516110d5610140860182610faa565b506101608301516110ea610160860182610f69565b508091505092915050565b60006111018383610fb9565b905092915050565b6000602082019050919050565b600061112182610ead565b61112b8185610eb8565b93508360208202850161113d85610ec9565b8060005b85811015611179578484038952815161115a85826110f5565b945061116583611109565b925060208a01995050600181019050611141565b50829750879550505050505092915050565b600060208201905081810360008301526111a58184611116565b905092915050565b6000604051905090565b600080fd5b600080fd5b6111ca81610e79565b81146111d557600080fd5b50565b6000813590506111e7816111c1565b92915050565b600060208284031215611203576112026111b7565b5b6000611211848285016111d8565b91505092915050565b600080fd5b600080fd5b7f4e487b7100000000000000000000000000000000000000000000000000000000600052604160045260246000fd5b61125c82610f1f565b810181811067ffffffffffffffff8211171561127b5761127a611224565b5b80604052505050565b600061128e6111ad565b905061129a8282611253565b919050565b600067ffffffffffffffff8211156112ba576112b9611224565b5b6112c382610f1f565b9050602081019050919050565b82818337600083830152505050565b60006112f26112ed8461129f565b611284565b90508281526020810184848401111561130e5761130d61121f565b5b6113198482856112d0565b509392505050565b600082601f8301126113365761133561121a565b5b81356113468482602086016112df565b91505092915050565b6000806000806000806000806000806101408b8d031215611373576113726111b7565b5b60006113818d828e016111d8565b9a505060208b013567ffffffffffffffff8111156113a2576113a16111bc565b5b6113ae8d828e01611321565b99505060408b013567ffffffffffffffff8111156113cf576113ce6111bc565b5b6113db8d828e01611321565b98505060608b013567ffffffffffffffff8111156113fc576113fb6111bc565b5b6114088d828e01611321565b97505060808b013567ffffffffffffffff811115611429576114286111bc565b5b6114358d828e01611321565b96505060a08b013567ffffffffffffffff811115611456576114556111bc565b5b6114628d828e01611321565b95505060c08b013567ffffffffffffffff811115611483576114826111bc565b5b61148f8d828e01611321565b94505060e08b013567ffffffffffffffff8111156114b0576114af6111bc565b5b6114bc8d828e01611321565b9350506101008b013567ffffffffffffffff8111156114de576114dd6111bc565b5b6114ea8d828e01611321565b9250506101208b013567ffffffffffffffff81111561150c5761150b6111bc565b5b6115188d828e01611321565b9150509295989b9194979a5092959850565b7f4e487b7100000000000000000000000000000000000000000000000000000000600052602260045260246000fd5b6000600282049050600182168061157157607f821691505b6020821081036115845761158361152a565b5b50919050565b7f4e487b7100000000000000000000000000000000000000000000000000000000600052603260045260246000fd5b7f4e487b7100000000000000000000000000000000000000000000000000000000600052601160045260246000fd5b60006115f382610e79565b91506115fe83610e79565b925082820261160c81610e79565b91508282048414831517611623576116226115b9565b5b5092915050565b7f4e487b7100000000000000000000000000000000000000000000000000000000600052601260045260246000fd5b600061166482610e79565b915061166f83610e79565b92508261167f5761167e61162a565b5b828204905092915050565b600061169582610e79565b91506116a083610e79565b92508282039050818111156116b8576116b76115b9565b5b92915050565b6000815490506116cd81611559565b9050919050565b60008190508160005260206000209050919050565b60006020601f8301049050919050565b600082821b905092915050565b6000600883026117367fffffffffffffffffffffffffffffffffffffffffffffffffffffffffffffffff826116f9565b61174086836116f9565b95508019841693508086168417925050509392505050565b6000819050919050565b600061177d61177861177384610e79565b611758565b610e79565b9050919050565b6000819050919050565b61179783611762565b6117ab6117a382611784565b848454611706565b825550505050565b600090565b6117c06117b3565b6117cb81848461178e565b505050565b5b818110156117ef576117e46000826117b8565b6001810190506117d1565b5050565b601f82111561183457611805816116d4565b61180e846116e9565b8101602085101561181d578190505b611831611829856116e9565b8301826117d0565b50505b505050565b600082821c905092915050565b600061185760001984600802611839565b1980831691505092915050565b60006118708383611846565b9150826002028217905092915050565b81810361188e575050611966565b611897826116be565b67ffffffffffffffff8111156118b0576118af611224565b5b6118ba8254611559565b6118c58282856117f3565b6000601f8311600181146118f457600084156118e2578287015490505b6118ec8582611864565b86555061195f565b601f198416611902876116d4565b965061190d866116d4565b60005b8281101561193557848901548255600182019150600185019450602081019050611910565b86831015611952578489015461194e601f891682611846565b8355505b6001600288020188555050505b5050505050505b565b7f4e487b7100000000000000000000000000000000000000000000000000000000600052603160045260246000fd5b60006119a282610e79565b91507fffffffffffffffffffffffffffffffffffffffffffffffffffffffffffffffff82036119d4576119d36115b9565b5b600182019050919050565b600082825260208201905092915050565b7f466f72204576657279206a6f6220746865206465706f73697420616d6f756e7460008201527f2073686f756c64206265206469666672656e7400000000000000000000000000602082015250565b6000611a4c6033836119df565b9150611a57826119f0565b604082019050919050565b60006020820190508181036000830152611a7b81611a3f565b9050919050565b600060ff82169050919050565b6000611a9a82611a82565b915060ff8203611aad57611aac6115b9565b5b600182019050919050565b611ac182610ed9565b67ffffffffffffffff811115611ada57611ad9611224565b5b611ae48254611559565b611aef8282856117f3565b600060209050601f831160018114611b225760008415611b10578287015190505b611b1a8582611864565b865550611b82565b601f198416611b30866116d4565b60005b82811015611b5857848901518255600182019150602085019450602081019050611b33565b86831015611b755784890151611b71601f891682611846565b8355505b6001600288020188555050505b50505050505056fea264697066735822122075943ae656c8b8e2e7430c402133f205db37ad1316f43ca24401be66a9203c3664736f6c63430008110033",
  "linkReferences": {},
  "deployedLinkReferences": {}
}